{"abi":[{"type":"function","name":"commentIdIncrement","inputs":[],"outputs":[{"name":"","type":"uint256","internalType":"uint256"}],"stateMutability":"view"},{"type":"function","name":"comments","inputs":[{"name":"","type":"uint256","internalType":"uint256"}],"outputs":[{"name":"owner","type":"address","internalType":"address"},{"name":"id","type":"uint256","internalType":"uint256"},{"name":"title","type":"string","internalType":"string"},{"name":"description","type":"string","internalType":"string"},{"name":"spoil","type":"bool","internalType":"bool"},{"name":"likes","type":"uint256","internalType":"uint256"},{"name":"timestamp","type":"uint256","internalType":"uint256"}],"stateMutability":"view"},{"type":"function","name":"compareStringsbyBytes","inputs":[{"name":"s1","type":"string","internalType":"string"},{"name":"s2","type":"string","internalType":"string"}],"outputs":[{"name":"","type":"bool","internalType":"bool"}],"stateMutability":"pure"},{"type":"function","name":"createComment","inputs":[{"name":"_postId","type":"uint256","internalType":"uint256"},{"name":"_title","type":"string","internalType":"string"},{"name":"_description","type":"string","internalType":"string"},{"name":"_spoil","type":"bool","internalType":"bool"}],"outputs":[{"name":"","type":"uint256","internalType":"uint256"}],"stateMutability":"nonpayable"},{"type":"function","name":"createPoll","inputs":[{"name":"_postId","type":"uint256","internalType":"uint256"},{"name":"_question","type":"string","internalType":"string"},{"name":"_option1","type":"string","internalType":"string"},{"name":"_option2","type":"string","internalType":"string"}],"outputs":[{"name":"","type":"uint256","internalType":"uint256"}],"stateMutability":"nonpayable"},{"type":"function","name":"createPost","inputs":[{"name":"_title","type":"string","internalType":"string"},{"name":"_description","type":"string","internalType":"string"},{"name":"_spoil","type":"bool","internalType":"bool"}],"outputs":[{"name":"","type":"uint256","internalType":"uint256"}],"stateMutability":"nonpayable"},{"type":"function","name":"downVoteComment","inputs":[{"name":"_commentId","type":"uint256","internalType":"uint256"}],"outputs":[],"stateMutability":"nonpayable"},{"type":"function","name":"downVotePost","inputs":[{"name":"_postId","type":"uint256","internalType":"uint256"}],"outputs":[],"stateMutability":"nonpayable"},{"type":"function","name":"getComment","inputs":[{"name":"_commentId","type":"uint256","internalType":"uint256"}],"outputs":[{"name":"","type":"tuple","internalType":"struct Forum.Comment","components":[{"name":"owner","type":"address","internalType":"address"},{"name":"id","type":"uint256","internalType":"uint256"},{"name":"title","type":"string","internalType":"string"},{"name":"description","type":"string","internalType":"string"},{"name":"spoil","type":"bool","internalType":"bool"},{"name":"likes","type":"uint256","internalType":"uint256"},{"name":"timestamp","type":"uint256","internalType":"uint256"}]}],"stateMutability":"view"},{"type":"function","name":"getCommentsFromPost","inputs":[{"name":"_postId","type":"uint256","internalType":"uint256"}],"outputs":[{"name":"","type":"uint256[]","internalType":"uint256[]"}],"stateMutability":"view"},{"type":"function","name":"getPoll","inputs":[{"name":"_pollId","type":"uint256","internalType":"uint256"}],"outputs":[{"name":"","type":"tuple","internalType":"struct Forum.Poll","components":[{"name":"id","type":"uint256","internalType":"uint256"},{"name":"question","type":"string","internalType":"string"},{"name":"option1","type":"string","internalType":"string"},{"name":"option2","type":"string","internalType":"string"},{"name":"option1Counter","type":"uint256","internalType":"uint256"},{"name":"option2Counter","type":"uint256","internalType":"uint256"}]}],"stateMutability":"view"},{"type":"function","name":"getPollFromPost","inputs":[{"name":"_postId","type":"uint256","internalType":"uint256"}],"outputs":[{"name":"","type":"tuple","internalType":"struct Forum.Poll","components":[{"name":"id","type":"uint256","internalType":"uint256"},{"name":"question","type":"string","internalType":"string"},{"name":"option1","type":"string","internalType":"string"},{"name":"option2","type":"string","internalType":"string"},{"name":"option1Counter","type":"uint256","internalType":"uint256"},{"name":"option2Counter","type":"uint256","internalType":"uint256"}]}],"stateMutability":"view"},{"type":"function","name":"getPost","inputs":[{"name":"_postId","type":"uint256","internalType":"uint256"}],"outputs":[{"name":"","type":"tuple","internalType":"struct Forum.Post","components":[{"name":"owner","type":"address","internalType":"address"},{"name":"id","type":"uint256","internalType":"uint256"},{"name":"title","type":"string","internalType":"string"},{"name":"description","type":"string","internalType":"string"},{"name":"spoil","type":"bool","internalType":"bool"},{"name":"likes","type":"uint256","internalType":"uint256"},{"name":"timestamp","type":"uint256","internalType":"uint256"}]}],"stateMutability":"view"},{"type":"function","name":"getPostsFromAddress","inputs":[{"name":"_user","type":"address","internalType":"address"}],"outputs":[{"name":"","type":"uint256[]","internalType":"uint256[]"}],"stateMutability":"view"},{"type":"function","name":"pollIdIncrement","inputs":[],"outputs":[{"name":"","type":"uint256","internalType":"uint256"}],"stateMutability":"view"},{"type":"function","name":"polls","inputs":[{"name":"","type":"uint256","internalType":"uint256"}],"outputs":[{"name":"id","type":"uint256","internalType":"uint256"},{"name":"question","type":"string","internalType":"string"},{"name":"option1","type":"string","internalType":"string"},{"name":"option2","type":"string","internalType":"string"},{"name":"option1Counter","type":"uint256","internalType":"uint256"},{"name":"option2Counter","type":"uint256","internalType":"uint256"}],"stateMutability":"view"},{"type":"function","name":"postIdIncrement","inputs":[],"outputs":[{"name":"","type":"uint256","internalType":"uint256"}],"stateMutability":"view"},{"type":"function","name":"postToPoll","inputs":[{"name":"","type":"uint256","internalType":"uint256"}],"outputs":[{"name":"","type":"uint256","internalType":"uint256"}],"stateMutability":"view"},{"type":"function","name":"posts","inputs":[{"name":"","type":"uint256","internalType":"uint256"}],"outputs":[{"name":"owner","type":"address","internalType":"address"},{"name":"id","type":"uint256","internalType":"uint256"},{"name":"title","type":"string","internalType":"string"},{"name":"description","type":"string","internalType":"string"},{"name":"spoil","type":"bool","internalType":"bool"},{"name":"likes","type":"uint256","internalType":"uint256"},{"name":"timestamp","type":"uint256","internalType":"uint256"}],"stateMutability":"view"},{"type":"function","name":"upVoteComment","inputs":[{"name":"_commentId","type":"uint256","internalType":"uint256"}],"outputs":[],"stateMutability":"nonpayable"},{"type":"function","name":"upVotePollOption","inputs":[{"name":"_postId","type":"uint256","internalType":"uint256"},{"name":"option","type":"string","internalType":"string"}],"outputs":[],"stateMutability":"nonpayable"},{"type":"function","name":"upVotePost","inputs":[{"name":"_postId","type":"uint256","internalType":"uint256"}],"outputs":[],"stateMutability":"nonpayable"},{"type":"event","name":"PostSubmitted","inputs":[{"name":"userAddress","type":"address","indexed":true,"internalType":"address"},{"name":"post","type":"tuple","indexed":false,"internalType":"struct Forum.Post","components":[{"name":"owner","type":"address","internalType":"address"},{"name":"id","type":"uint256","internalType":"uint256"},{"name":"title","type":"string","internalType":"string"},{"name":"description","type":"string","internalType":"string"},{"name":"spoil","type":"bool","internalType":"bool"},{"name":"likes","type":"uint256","internalType":"uint256"},{"name":"timestamp","type":"uint256","internalType":"uint256"}]}],"anonymous":false}],"bytecode":{"object":"0x60806040526001600055600180556001600255348015601d57600080fd5b50611d368061002d6000396000f3fe608060405234801561001057600080fd5b50600436106101425760003560e01c80635fd8cf12116100b85780638ebb4c151161007c5780638ebb4c15146102b9578063ac2f0074146102cc578063bc8fd685146102f1578063c250bd8114610304578063c60fa0fa14610317578063e9a734ff1461032a57600080fd5b80635fd8cf12146102575780636cc3f3c6146102605780637e9545b41461028057806387bcfd68146102935780638e07bba2146102a657600080fd5b806321828f821161010a57806321828f82146101e257806324844ea3146101f557806328fba232146102085780633ceb7c861461021b57806340288e1c1461022457806340731c241461024457600080fd5b80630800e300146101475780630b1e7f83146101705780630e98745e14610196578063138c40d1146101ad5780631a8cbcaa146101c2575b600080fd5b61015a610155366004611494565b61034d565b6040516101679190611574565b60405180910390f35b61018361017e366004611494565b61054b565b604051610167979695949392919061158e565b61019f60025481565b604051908152602001610167565b6101c06101bb366004611494565b6106a6565b005b6101d56101d0366004611494565b61077a565b60405161016791906115e7565b6101c06101f0366004611494565b6109f5565b6101c0610203366004611494565b610a82565b6101d5610216366004611494565b610ac3565b61019f60015481565b610237610232366004611494565b610b3f565b6040516101679190611669565b61015a610252366004611494565b610bc3565b61019f60005481565b61019f61026e366004611494565b60076020526000908152604090205481565b61019f61028e366004611764565b610c7a565b61019f6102a13660046117e5565b610dbb565b6101c06102b4366004611494565b610ec2565b6101836102c7366004611494565b610f03565b6102df6102da366004611494565b610f35565b60405161016796959493929190611880565b6101c06102ff3660046118d5565b611102565b61019f61031236600461191b565b6112d0565b610237610325366004611992565b6113d0565b61033d6103383660046119bb565b61143a565b6040519015158152602001610167565b6103986040518060e0016040528060006001600160a01b0316815260200160008152602001606081526020016060815260200160001515815260200160008152602001600081525090565b6002548211156103c35760405162461bcd60e51b81526004016103ba90611a0c565b60405180910390fd5b600082815260066020908152604091829020825160e08101845281546001600160a01b03168152600182015492810192909252600281018054929391929184019161040d90611a43565b80601f016020809104026020016040519081016040528092919081815260200182805461043990611a43565b80156104865780601f1061045b57610100808354040283529160200191610486565b820191906000526020600020905b81548152906001019060200180831161046957829003601f168201915b5050505050815260200160038201805461049f90611a43565b80601f01602080910402602001604051908101604052809291908181526020018280546104cb90611a43565b80156105185780601f106104ed57610100808354040283529160200191610518565b820191906000526020600020905b8154815290600101906020018083116104fb57829003601f168201915b5050509183525050600482015460ff16151560208201526005820154604082015260069091015460609091015292915050565b6004602052600090815260409020805460018201546002830180546001600160a01b0390931693919261057d90611a43565b80601f01602080910402602001604051908101604052809291908181526020018280546105a990611a43565b80156105f65780601f106105cb576101008083540402835291602001916105f6565b820191906000526020600020905b8154815290600101906020018083116105d957829003601f168201915b50505050509080600301805461060b90611a43565b80601f016020809104026020016040519081016040528092919081815260200182805461063790611a43565b80156106845780601f1061065957610100808354040283529160200191610684565b820191906000526020600020905b81548152906001019060200180831161066757829003601f168201915b5050505060048301546005840154600690940154929360ff9091169290915087565b6002548111156106c85760405162461bcd60e51b81526004016103ba90611a0c565b600081815260066020526040902060058101546106e6906001611a93565b60058201556000828152600660205260409020815481546001600160a01b0319166001600160a01b0390911617815560018083015490820155819060028082019061073390840182611af5565b5060038181019061074690840182611af5565b50600482810154908201805460ff191660ff9092161515919091179055600580830154908201556006918201549101555050565b6107b36040518060c001604052806000815260200160608152602001606081526020016060815260200160008152602001600081525090565b6001548211156107fc5760405162461bcd60e51b8152602060048201526014602482015273506f6c6c20646f6573206e6f742065786973742160601b60448201526064016103ba565b600560008381526020019081526020016000206040518060c00160405290816000820154815260200160018201805461083490611a43565b80601f016020809104026020016040519081016040528092919081815260200182805461086090611a43565b80156108ad5780601f10610882576101008083540402835291602001916108ad565b820191906000526020600020905b81548152906001019060200180831161089057829003601f168201915b505050505081526020016002820180546108c690611a43565b80601f01602080910402602001604051908101604052809291908181526020018280546108f290611a43565b801561093f5780601f106109145761010080835404028352916020019161093f565b820191906000526020600020905b81548152906001019060200180831161092257829003601f168201915b5050505050815260200160038201805461095890611a43565b80601f016020809104026020016040519081016040528092919081815260200182805461098490611a43565b80156109d15780601f106109a6576101008083540402835291602001916109d1565b820191906000526020600020905b8154815290600101906020018083116109b457829003601f168201915b50505050508152602001600482015481526020016005820154815250509050919050565b600054811115610a175760405162461bcd60e51b81526004016103ba90611bd4565b60008181526004602052604090206005810154610a35906001611a93565b60058201556000828152600460205260409020815481546001600160a01b0319166001600160a01b0390911617815560018083015490820155819060028082019061073390840182611af5565b600054811115610aa45760405162461bcd60e51b81526004016103ba90611bd4565b60008181526004602052604090206005810154610a3590600190611c02565b610afc6040518060c001604052806000815260200160608152602001606081526020016060815260200160008152602001600081525090565b600054821115610b1e5760405162461bcd60e51b81526004016103ba90611bd4565b60008281526007602052604081205490610b378261077a565b949350505050565b6060600054821115610b635760405162461bcd60e51b81526004016103ba90611bd4565b60008281526008602090815260409182902080548351818402810184019094528084529091830182828015610bb757602002820191906000526020600020905b815481526020019060010190808311610ba3575b50505050509050919050565b610c0e6040518060e0016040528060006001600160a01b0316815260200160008152602001606081526020016060815260200160001515815260200160008152602001600081525090565b600054821115610c305760405162461bcd60e51b81526004016103ba90611bd4565b600082815260046020908152604091829020825160e08101845281546001600160a01b03168152600182015492810192909252600281018054929391929184019161040d90611a43565b60008054851115610c9d5760405162461bcd60e51b81526004016103ba90611bd4565b6002805460009182610cae83611c15565b909155506040805160e08101825233815260208082018481528284018a8152606084018a90528815156080850152600060a085018190524260c0860152868152600690935293909120825181546001600160a01b0319166001600160a01b03909116178155905160018201559151929350916002820190610d2f9082611c2e565b5060608201516003820190610d449082611c2e565b50608082015160048201805460ff191691151591909117905560a0820151600582015560c0909101516006909101556000958652600860209081526040808820805460018181018355918a52838a200184905533895260098352908820805491820181558852962090950185905550929392505050565b60008054851115610dde5760405162461bcd60e51b81526004016103ba90611bd4565b6001805460009182610def83611c15565b909155506040805160c08101825282815260208082018981528284018990526060830188905260006080840181905260a084018190528581526005909252929020815181559151929350916001820190610e499082611c2e565b5060408201516002820190610e5e9082611c2e565b5060608201516003820190610e739082611c2e565b506080820151600482015560a0909101516005909101556000868152600760209081526040808320849055338352600a8252822080546001810182559083529120018190559050949350505050565b600254811115610ee45760405162461bcd60e51b81526004016103ba90611a0c565b600081815260066020526040902060058101546106e690600190611c02565b6006602052600090815260409020805460018201546002830180546001600160a01b0390931693919261057d90611a43565b60056020526000908152604090208054600182018054919291610f5790611a43565b80601f0160208091040260200160405190810160405280929190818152602001828054610f8390611a43565b8015610fd05780601f10610fa557610100808354040283529160200191610fd0565b820191906000526020600020905b815481529060010190602001808311610fb357829003601f168201915b505050505090806002018054610fe590611a43565b80601f016020809104026020016040519081016040528092919081815260200182805461101190611a43565b801561105e5780601f106110335761010080835404028352916020019161105e565b820191906000526020600020905b81548152906001019060200180831161104157829003601f168201915b50505050509080600301805461107390611a43565b80601f016020809104026020016040519081016040528092919081815260200182805461109f90611a43565b80156110ec5780601f106110c1576101008083540402835291602001916110ec565b820191906000526020600020905b8154815290600101906020018083116110cf57829003601f168201915b5050505050908060040154908060050154905086565b6000548211156111245760405162461bcd60e51b81526004016103ba90611bd4565b6000828152600760209081526040808320548352600590915290206002810180546111d7919061115390611a43565b80601f016020809104026020016040519081016040528092919081815260200182805461117f90611a43565b80156111cc5780601f106111a1576101008083540402835291602001916111cc565b820191906000526020600020905b8154815290600101906020018083116111af57829003601f168201915b50505050508361143a565b156111f8576004810180549060006111ee83611c15565b919050555061125e565b61120a81600301805461115390611a43565b15611221576005810180549060006111ee83611c15565b60405162461bcd60e51b81526020600482015260126024820152712737ba1030903b30b634b21037b83a34b7b760711b60448201526064016103ba565b60008381526007602090815260408083205483526005909152902081548155819060018082019061129190840182611af5565b506002818101906112a490840182611af5565b506003818101906112b790840182611af5565b5060048281015490820155600591820154910155505050565b60008054819081806112e183611c15565b909155506040805160e08101825233815260208082018481528284018a8152606084018a90528815156080850152600060a085018190524260c0860152868152600490935293909120825181546001600160a01b0319166001600160a01b039091161781559051600182015591519293509160028201906113629082611c2e565b50606082015160038201906113779082611c2e565b50608082015160048201805460ff191691151591909117905560a0820151600582015560c09091015160069091015533600090815260036020908152604082208054600181018255908352912001819055949350505050565b6001600160a01b038116600090815260036020908152604091829020805483518184028101840190945280845260609392830182828015610bb75760200282019190600052602060002090815481526020019060010190808311610ba35750505050509050919050565b60008160405160200161144d9190611ce4565b60405160208183030381529060405280519060200120836040516020016114749190611ce4565b604051602081830303815290604052805190602001201490505b92915050565b6000602082840312156114a657600080fd5b5035919050565b60005b838110156114c85781810151838201526020016114b0565b50506000910152565b600081518084526114e98160208601602086016114ad565b601f01601f19169290920160200192915050565b60018060a01b038151168252602081015160208301526000604082015160e0604085015261152e60e08501826114d1565b90506060830151848203606086015261154782826114d1565b91505060808301511515608085015260a083015160a085015260c083015160c08501528091505092915050565b60208152600061158760208301846114fd565b9392505050565b60018060a01b038816815286602082015260e0604082015260006115b560e08301886114d1565b82810360608401526115c781886114d1565b9515156080840152505060a081019290925260c090910152949350505050565b60208152815160208201526000602083015160c0604084015261160d60e08401826114d1565b90506040840151601f1984830301606085015261162a82826114d1565b9150506060840151601f1984830301608085015261164882826114d1565b915050608084015160a084015260a084015160c08401528091505092915050565b602080825282518282018190526000918401906040840190835b818110156116a1578351835260209384019390920191600101611683565b509095945050505050565b634e487b7160e01b600052604160045260246000fd5b600082601f8301126116d357600080fd5b81356001600160401b038111156116ec576116ec6116ac565b604051601f8201601f19908116603f011681016001600160401b038111828210171561171a5761171a6116ac565b60405281815283820160200185101561173257600080fd5b816020850160208301376000918101602001919091529392505050565b8035801515811461175f57600080fd5b919050565b6000806000806080858703121561177a57600080fd5b8435935060208501356001600160401b0381111561179757600080fd5b6117a3878288016116c2565b93505060408501356001600160401b038111156117bf57600080fd5b6117cb878288016116c2565b9250506117da6060860161174f565b905092959194509250565b600080600080608085870312156117fb57600080fd5b8435935060208501356001600160401b0381111561181857600080fd5b611824878288016116c2565b93505060408501356001600160401b0381111561184057600080fd5b61184c878288016116c2565b92505060608501356001600160401b0381111561186857600080fd5b611874878288016116c2565b91505092959194509250565b86815260c06020820152600061189960c08301886114d1565b82810360408401526118ab81886114d1565b905082810360608401526118bf81876114d1565b6080840195909552505060a00152949350505050565b600080604083850312156118e857600080fd5b8235915060208301356001600160401b0381111561190557600080fd5b611911858286016116c2565b9150509250929050565b60008060006060848603121561193057600080fd5b83356001600160401b0381111561194657600080fd5b611952868287016116c2565b93505060208401356001600160401b0381111561196e57600080fd5b61197a868287016116c2565b9250506119896040850161174f565b90509250925092565b6000602082840312156119a457600080fd5b81356001600160a01b038116811461158757600080fd5b600080604083850312156119ce57600080fd5b82356001600160401b038111156119e457600080fd5b6119f0858286016116c2565b92505060208301356001600160401b0381111561190557600080fd5b60208082526017908201527f436f6d6d656e7420646f6573206e6f7420657869737421000000000000000000604082015260600190565b600181811c90821680611a5757607f821691505b602082108103611a7757634e487b7160e01b600052602260045260246000fd5b50919050565b634e487b7160e01b600052601160045260246000fd5b8082018082111561148e5761148e611a7d565b601f821115611af057806000526020600020601f840160051c81016020851015611acd5750805b601f840160051c820191505b81811015611aed5760008155600101611ad9565b50505b505050565b818103611b00575050565b611b0a8254611a43565b6001600160401b03811115611b2157611b216116ac565b611b3581611b2f8454611a43565b84611aa6565b6000601f821160018114611b6c5760008315611b515750848201545b600184901b600019600386901b1c198216175b855550611aed565b600085815260209020601f19841690600086815260209020845b83811015611ba65782860154825560019586019590910190602001611b86565b5085831015611bc45781850154600019600388901b60f8161c191681555b5050505050600190811b01905550565b602080825260149082015273506f737420646f6573206e6f742065786973742160601b604082015260600190565b8181038181111561148e5761148e611a7d565b600060018201611c2757611c27611a7d565b5060010190565b81516001600160401b03811115611c4757611c476116ac565b611c5581611b2f8454611a43565b6020601f821160018114611c875760008315611b51575081850151600184901b600019600386901b1c19821617611b64565b600084815260208120601f198516915b82811015611cb75787850151825560209485019460019092019101611c97565b5084821015611cd55786840151600019600387901b60f8161c191681555b50505050600190811b01905550565b60008251611cf68184602087016114ad565b919091019291505056fea264697066735822122040e848db36c6464d002c53f3a718c961ae56b479cabe53ce66ea420ec48a2a0864736f6c634300081b0033","linkReferences":{}},"methodIdentifiers":{"commentIdIncrement()":"0e98745e","comments(uint256)":"8ebb4c15","compareStringsbyBytes(string,string)":"e9a734ff","createComment(uint256,string,string,bool)":"7e9545b4","createPoll(uint256,string,string,string)":"87bcfd68","createPost(string,string,bool)":"c250bd81","downVoteComment(uint256)":"8e07bba2","downVotePost(uint256)":"24844ea3","getComment(uint256)":"0800e300","getCommentsFromPost(uint256)":"40288e1c","getPoll(uint256)":"1a8cbcaa","getPollFromPost(uint256)":"28fba232","getPost(uint256)":"40731c24","getPostsFromAddress(address)":"c60fa0fa","pollIdIncrement()":"3ceb7c86","polls(uint256)":"ac2f0074","postIdIncrement()":"5fd8cf12","postToPoll(uint256)":"6cc3f3c6","posts(uint256)":"0b1e7f83","upVoteComment(uint256)":"138c40d1","upVotePollOption(uint256,string)":"bc8fd685","upVotePost(uint256)":"21828f82"},"id":25}